S01E000047636341706C69636163616F506C616E7447756172642E737265638A
S11300000C9434000C9446000C9446000C94460066
S11300100C9446000C9446000C9446000C94460044
S11300200C9446000C9446000C9446000C94460034
S11300300C9446000C9446000C9448000C94460022
S11300400C9446000C9446000C9446000C94460014
S11300500C9446000C9446000C9446000C94460004
S11300600C9446000C94460011241FBECFEFD8E038
S1130070DEBFCDBF21E0A0E0B1E001C01D92A13000
S1130080B207E1F70E94E0010C94BF020C94000057
S11300901F920F920FB60F9211248F93809100013B
S11300A0882321F08BB180588BB903C08BB18F7733
S11300B08BB98F910F900FBE0F901F90189590934E
S11300C0C5008093C40088E18093C10086E08093DA
S11300D0C20008959091C00095FFFCCF8093C600A4
S11300E00895CF93DF93EC0103C021960E946A0028
S11300F088818111FACFDF91CF9108958091C0005A
S1130100807890E0089584B1876284B98AB188695F
S11301108AB987B18E7F87B9089580E480937C0083
S113012087E880937A000895ECE7F0E09081907F6F
S11301308F70892B8083EAE7F0E08081806480837C
S113014080917A0086FDFCCF8091780090917900AF
S1130150089582E084BD93E095BD80936E00089578
S1130160009719F4109200010895A0E0B0E0880F00
S1130170991FAA1FBB1F880F991FAA1FBB1F880F97
S1130180991FAA1FBB1F880F991FAA1FBB1F880F87
S1130190991FAA1FBB1F880F991FAA1FBB1F9C0171
S11301A0AD01220F331F441F551F60E074E284EF3A
S11301B090E00E942F02215027BD81E0809300012E
S11301C0089584B1826084B982E8809380008AE1D2
S11301D0809381008FE39CE990938700809386004D
S11301E080ED97E0909389008093880008954F9262
S11301F05F926F927F92AF92BF92CF92DF92EF9213
S1130200FF920F931F93CF93DF93CDB7DEB72901EE
S11302103A019B01AC01241935094609570989891A
S11302209A89AB89BC89BC01CD016A197B098C0907
S11302309D090E941F02A801970124193509460946
S113024057090E945102C601B501620F731F841F32
S1130250951FDF91CF911F910F91FF90EF90DF9049
S1130260CF90BF90AF907F906F905F904F90089524
S113027085B18E7F85B98BB18F7E8BB985B18B7F2C
S113028085B98BB1877F8BB908958BB188608BB9A1
S11302908FEF9CE70197F1F700C000008BB1877FD7
S11302A08BB98FEF9CE70197F1F700C00000089528
S11302B00E947E00892BC9F08091C600813451F4DC
S11302C085B1806285B980E391E190938900809340
S11302D088000895863449F485B18F7D85B980ED11
S11302E097E090938900809388000895AF92BF921D
S11302F0CF92DF92EF92FF920F931F93CF93DF93EE
S113030080E00E949400BC0180E090E01F921F9264
S11303101F9224E62F93A12CB12C6501EE24EA94BC
S113032013E0F12E00E010E020E030E0A9010E948B
S1130330F7000F900F900F900F906B017C01EB0171
S11303400E94380180E090E00E94B000C031D105E5
S113035044F485B1846085B980ED97E00E94B000D3
S113036023C0CF31D10524F485B1846085B91CC084
S1130370C333D10524F48BB180618BB915C0C73464
S1130380D10524F485B1816085B90EC0CB35D10582
S113039024F48BB180618BB907C085B1846085B9C1
S11303A080EA9FE00E94B000C601DF91CF911F91C7
S11303B00F91FF90EF90DF90CF90BF90AF90089592
S11303C0CF93DF93CDB7DEB72A970FB6F894DEBF8D
S11303D00FBECDBF0E9483000E948D0087E690E08F
S11303E00E945F000E94A9000E94E10078940E948C
S11303F038018BB1877F8BB980ED97E090938900AA
S1130400809388000E9476014AE0BE016F5F7F4FAF
S11304100E948A02CE0101960E9471008AE00E9425
S11304206A000E9458010E9445012FEF89E698E175
S1130430215080409040E1F700C00000E3CFDB0191
S11304408F939F930E947002BF91AF91A29F800DE2
S1130450911DA39F900DB29F900D11240895A1E2C8
S11304601A2EAA1BBB1BFD010DC0AA1FBB1FEE1F2A
S1130470FF1FA217B307E407F50720F0A21BB30B75
S1130480E40BF50B661F771F881F991F1A9469F7F1
S113049060957095809590959B01AC01BD01CF014D
S11304A00895052E97FB1EF400940E94680257FDE0
S11304B007D00E942F0207FC03D04EF40C9468026C
S11304C050954095309521953F4F4F4F5F4F08957C
S11304D090958095709561957F4F8F4F9F4F0895AC
S11304E00E947B02A59F900DB49F900DA49F800D48
S11304F0911D11240895A29FB001B39FC001A39F31
S1130500700D811D1124911DB29F700D811D112448
S1130510911D0895BB274A3031F4992322F4BDE29A
S1130520909581959F4F0C949602BB27FB0155270C
S1130530AA27880F991FAA1FA41710F0A41B83953C
S11305405051B9F7A05DAA3308F0A95DA1930097B3
S113055079F7B111B1931192CB010C94AF02DC0184
S1130560FC01672F71917723E1F7329704C07C91E6
S11305706D9370836291AE17BF07C8F30895F89422
S1050580FFCFA7
S9030000FC
